:100000000C9443000C94130B0C94130B0C94130BD3
:100010000C94130B0C94130B0C94130B0C94130BE8
:100020000C94130B0C94130B0C94130B0C94130BD8
:100030000C94130B0C94030A0C94130B0C94130BD9
:100040000C94130B0C94130B0C94130B0C94130BB8
:100050000C94130B0C94130B0C94130B0C94130BA8
:100060000C94130B0C94130B0100015980015901DE
:100070009100162A01910195800195019700166261
:1000800001970198800011241FBECFEFD8E0DEBF9A
:10009000CDBFE8E6F0E040E017C0B591A5913591FD
:1000A0002591059107FD0CC095918591EF01F92FE0
:1000B000E82F05900D92A217B307D9F7FE0104C0EF
:1000C0001D92A217B307E1F7E538F40731F70E9454
:0A00D00091070C946B00F894FFCF29
:1000DA00AF92BF92CF92DF92EF92FF920F931F934C
:1000EA00CF93DF93C0E0D0E0B1C110929701109294
:1000FA001801109217010E949A090E946C098093B4
:10010A0000018823C1F38091930190919401019693
:10011A0083709078992324F401978C6F9F6F0196CE
:10012A0090930A018093090181E090E0909318016D
:10013A00809317010E94400A60930B0170930C018F
:10014A0080930D0190930E012091810130918201DB
:10015A0040918301509184010E94F90A1816ACF06B
:10016A000E94310783709078992324F401978C6F49
:10017A009F6F0196909392018093910182E090E0A3
:10018A00909318018093170112C0609193017091A6
:10019A00940189E191E00E94400290939201809338
:1001AA00910182E090E09093180180931701809169
:1001BA00170190911801029709F0DEC08091910110
:1001CA0090919201892B69F541E064E082E00E94F6
:1001DA0087062FE784E89EE1215080409040E1F7AE
:1001EA0000C0000040E064E082E00E9487060E94AE
:1001FA00EE09E0919301F0919401EE0FFF1FEE0FCB
:10020A00FF1F8091910190919201E80FF91FEE0F63
:10021A00FF1FE75AFE4F80819181909302018093DC
:10022A0001018091910190919201019779F50E94C3
:10023A00AF0941E063E082E00E9487062FE784E885
:10024A009EE1215080409040E1F700C0000040E06C
:10025A0063E082E00E9487060E94EE09E091930122
:10026A00F0919401EE0FFF1FEE0FFF1F8091910195
:10027A0090919201E80FF91FEE0FFF1FE75AFE4F08
:10028A008081918190930201809301018091910173
:10029A0090919201029779F50E94C40941E062E0C7
:1002AA0082E00E9487062FE784E89EE12150804081
:1002BA009040E1F700C0000040E062E082E00E9466
:1002CA0087060E94EE09E0919301F0919401EE0FE6
:1002DA00FF1FEE0FFF1F8091910190919201E80F8D
:1002EA00F91FEE0FFF1FE75AFE4F8081918190930D
:1002FA0002018093010180919101909192010397EB
:10030A0079F50E94D90941E061E082E00E948706FE
:10031A002FE784E89EE1215080409040E1F700C039
:10032A00000040E061E082E00E9487060E94EE0938
:10033A00E0919301F0919401EE0FFF1FEE0FFF1F62
:10034A008091910190919201E80FF91FEE0FFF1F22
:10035A00E75AFE4F808191819093020180930101B7
:10036A0081E0809397012FE986E891E0215080404F
:10037A009040E1F700C0000080919701882309F4BA
:10038A0064C0A0908901B0908A01C0908B01D0907E
:10039A008C01E0900101F0900201209191013091CD
:1003AA0092014091090150910A0160919301709163
:1003BA009401809188018F93809187018F93809116
:1003CA0086018F93809185018F9309E711E089E176
:1003DA0091E00E9450048091090190910A01909342
:1003EA0094018093930160918101709182018091BF
:1003FA008301909184010E94C90A609381017093DC
:10040A00820180938301909384012FE986E891E029
:10041A00215080409040E1F700C0000041E065E0D3
:10042A0082E00E9487062FE986E891E02150804009
:10043A009040E1F700C0000040E065E082E00E94E1
:10044A0087060F900F900F900F902196809195013B
:10045A0090919601C817D9070CF447CE0E944C0810
:10046A00DF91CF911F910F91FF90EF90DF90CF9086
:06047A00BF90AF90089551
:100480006F927F928F929F92AF92BF92CF92DF92A4
:10049000EF92FF920F931F93CF93DF93CDB7DEB709
:1004A00060970FB6F894DEBF0FBECDBF40E050E0BE
:1004B00020C0FB01E295F295F07FFE27E07FFE274A
:1004C000E80FF91F9A01220F331F220F331FE20F8B
:1004D000F31FC080D180E280F380E1E0F0E0EC0F18
:1004E000FD1FE20FF31FC082D182E282F3824F5FD1
:1004F0005F4F44305105ECF200E010E0C12CD12CEC
:10050000F12CE12C45C0F801EE0FFF1FEE0FFF1F8D
:1005100081E090E08C0F9D1FE80FF91FB080A18053
:10052000928083802B2D3A2D492D582D6C2D7D2DB9
:100530008F2D9E2D0E94FE0A181624F4BC2CAD2C83
:100540009F2C8E2C0F5F1F4FF801EE0FFF1FEE0F39
:10055000FF1F81E090E08C0F9D1FE80FF91FC08006
:10056000D180F280E3802C2D3D2D4F2D5E2D6B2D03
:100570007A2D892D982D0E94D00A20E030E0A90123
:100580000E94FE0A181624F4CB2CDA2CF92CE82C45
:10059000033011050CF4B7CF00E010E019C0F801EA
:1005A000EE0FFF1FEE0FFF1F81E090E08C0F9D1FED
:1005B000E80FF91F20813181428153816C2D7D2DFF
:1005C0008F2D9E2D0E94F90A882331F00F5F1F4F57
:1005D0000430110524F302C0702E612E872D962D54
:1005E00060960FB6F894DEBF0FBECDBFDF91CF91FE
:1005F0001F910F91FF90EF90DF90CF90BF90AF9041
:0A0600009F908F907F906F900895F7
:10060A000E94820841E065E082E00E9487060E941B
:10061A009A090E946C09809300018823C1F30E9401
:10062A00EE092FEB87E299E0215080409040E1F7F4
:10063A0000C000000E943F079093940180939301A9
:10064A00BC0189E191E00E9440029093920180935B
:10065A009101892B59F42FE784E89EE121508040CB
:10066A009040E1F700C000000E94EE0980919101DC
:10067A00909192010197B9F40E94AF0941E063E0B9
:10068A0082E00E9487062FE784E89EE1215080409D
:10069A009040E1F700C0000040E063E082E00E9481
:1006AA0087060E94EE09809191019091920102972A
:1006BA0021F50E94AF092FEB87E299E02150804093
:1006CA009040E1F700C000000E94EE090E94C409B0
:1006DA0041E062E082E00E9487062FE784E89EE11B
:1006EA00215080409040E1F700C0000040E062E005
:1006FA0082E00E9487060E94EE0980919101909102
:10070A009201039709F083CF0E94AF092FEB87E28A
:10071A0099E0215080409040E1F700C000000E941B
:10072A00EE090E94D90941E061E082E00E94870651
:10073A002FE784E89EE1215080409040E1F700C015
:10074A00000040E061E082E00E9487060E94EE0914
:02075A005ECF70
:10075C008F929F92AF92BF92CF92DF92EF92FF92C5
:10076C000F931F93CF93DF93CDB7DEB760970FB680
:10077C00F894DEBF0FBECDBF80E090E021C0FB013E
:10078C00EE0FFF1FEE0FFF1FE80FF91FEE0FFF1FFD
:10079C00EE0FFF1FE75EFE4F008111812281338136
:1007AC00FC01EE0FFF1FEE0FFF1F41E050E04C0F5E
:1007BC005D1FE40FF51F00831183228333830196A1
:1007CC0084309105E4F200E010E0F12CE12CD12C06
:1007DC00C12C45C0F801EE0FFF1FEE0FFF1F81E08B
:1007EC0090E08C0F9D1FE80FF91FB080A1809280C4
:1007FC0083802B2D3A2D492D582D6F2D7E2D8D2D2F
:10080C009C2D0E94FE0A181624F4BF2CAE2C9D2C95
:10081C008C2C0F5F1F4FF801EE0FFF1FEE0FFF1F09
:10082C0041E050E04C0F5D1FE40FF51FF080E180BC
:10083C00D280C3802F2D3E2D4D2D5C2D6B2D7A2D0E
:10084C00892D982D0E94D00A20E030E0A9010E9449
:10085C00FE0A181624F4FB2CEA2CD92CC82C0330D5
:10086C0011050CF4B7CF6F2D7E2D8D2D9C2D609620
:10087C000FB6F894DEBF0FBECDBFDF91CF911F91A5
:10088C000F91FF90EF90DF90CF90BF90AF909F9023
:04089C008F9008959C
:1008A0004F925F926F927F92AF92BF92CF92DF9200
:1008B000EF92FF920F931F93CF93DF93CDB7DEB7E5
:1008C00028970FB6F894DEBF0FBECDBF6295729524
:1008D000707F7627607F7627680F791F220F331F7E
:1008E000220F331F8B01020F131FD8014D905D9013
:1008F0006D907C9040920F01509210016092110116
:1009000070921201BA010E94AE0369837A838B83CD
:100910009C8360931301709314018093150190934D
:100920001601A601950160E070E080E89FE30E9457
:10093000D00A9B01AC01C301B2010E940C0B6D8374
:100940007E838F839887298D3A8D4B8D5C8D69814D
:100950007A818B819C810E940C0B2B013C01B70199
:10096000FF0C880B990B0E941108A30192010E94B1
:10097000D10A9B01AC01C601B5010E940C0B9B0181
:10098000AC016D817E818F8198850E94D10A609330
:100990000501709306018093070190930801F80107
:1009A000608371838283938328960FB6F894DEBFA9
:1009B0000FBECDBFDF91CF911F910F91FF90EF90B0
:1009C000DF90CF90BF90AF907F906F905F904F90EF
:0209D000089588
:1009D20010C00E94DE0A58F00E94D70A40F029F4A3
:1009E2005F3F29F00C94F30A51110C94E60A0C941F
:1009F200100B0E94080968F39923B1F3552391F370
:100A0200951B550BBB27AA2762177307840738F07B
:100A12009F5F5F4F220F331F441FAA1FA9F335D0D8
:100A22000E2E3AF0E0E832D091505040E695001C8C
:100A3200CAF72BD0FE2F29D0660F771F881FBB1F46
:100A4200261737074807AB07B0E809F0BB0B802D24
:100A5200BF01FF2793585F4F3AF09E3F510578F050
:100A62000C94F30A0C94E60A5F3FE4F3983ED4F345
:100A7200869577956795B795F7959F5FC9F7880F24
:100A8200911D9695879597F90895E1E0660F771F76
:100A9200881FBB1F621773078407BA0720F0621B07
:0E0AA200730B840BBA0BEE1F88F7E0950895D6
:100AB0000FC00E94D70A38F00E94DE0A20F095236A
:100AC00011F00C94F30A0C94100B11240C94E60A08
:100AD0000E94080970F3959FC1F3950F50E0551FD0
:100AE000629FF001729FBB27F00DB11D639FAA2783
:100AF000F00DB11DAA1F649F6627B00DA11D661FD2
:100B0000829F2227B00DA11D621F739FB00DA11DF2
:100B1000621F839FA00D611D221F749F3327A00DAC
:100B2000611D231F849F600D211D822F762F6A2F48
:100B300011249F5750409AF0F1F088234AF0EE0FAD
:100B4000FF1FBB1F661F771F881F91505040A9F7DA
:100B50009E3F510580F00C94F30A0C94E60A5F3F27
:100B6000E4F3983ED4F3869577956795B795F79516
:100B7000E7959F5FC1F7FE2B880F911D969587958E
:040B800097F9089544
:100B840011C00E94D70A38F00E94DE0A20F039F41E
:100B94009F3F19F426F40C94100B0EF4E095E7FB38
:100BA4000C94F30AE92F0E94080958F3BA17620754
:100BB40073078407950720F079F4A6F50C94E50AE9
:100BC4000EF4E0950B2EBA2FA02D0B01B901900164
:100BD4000C01CA01A0011124FF27591B99F0593FA8
:100BE40050F4503E68F11A16F040A22F232F342FF0
:100BF4004427585FF3CF469537952795A795F0403E
:100C04005395C9F77EF41F16BA0B620B730B840B52
:100C1400BAF09150A1F0FF0FBB1F661F771F881F0A
:100C2400C2F70EC0BA0F621F731F841F48F4879562
:100C340077956795B795F7959E3F08F0B0CF939554
:0E0C4400880F08F09927EE0F97958795089571
:100C52009FEF980F933008F058C0683008F055C0E5
:100C620041112BC0823089F08330D9F0813009F0F4
:100C72004CC024B181E090E002C0880F991F6A95B0
:100C8200E2F78095822384B9089527B181E090E04C
:100C920002C0880F991F6A95E2F78095822387B96F
:100CA20008952AB181E090E002C0880F991F6A95E9
:100CB200E2F7809582238AB90895413031F5823076
:100CC20079F08330C1F0813001F524B181E090E008
:100CD20002C0880F991F6A95E2F7822B84B90895A2
:100CE20027B181E090E002C0880F991F6A95E2F770
:100CF200822B87B908952AB181E090E002C0880F63
:0C0D0200991F6A95E2F7822B8AB90895C8
:100D0E009FEF980F933008F058C0683008F055C028
:100D1E00413041F5823081F08330C9F0813009F0E5
:100D2E004CC025B181E090E002C0880F991F6A95F2
:100D3E00E2F7822B85B9089528B181E090E002C0D8
:100D4E00880F991F6A95E2F7822B88B908952BB107
:100D5E0081E090E002C0880F991F6A95E2F7822B1E
:100D6E008BB90895411129C0823081F08330D1F0C2
:100D7E00813019F525B181E090E002C0880F991FEE
:100D8E006A95E2F78095822385B9089528B181E0AE
:100D9E0090E002C0880F991F6A95E2F78095822332
:100DAE0088B908952BB181E090E002C0880F991F99
:0C0DBE006A95E2F7809582238BB90895B6
:100DCA008F929F92AF92BF92CF92DF92EF92FF9251
:100DDA00CF93DF93EC01688179818A819B816115C8
:100DEA0071058105910521F464E279ED8BE597E0BF
:100DFA002DE133EF41E050E00E94830949015A0195
:100E0A009B01AC01A7EAB1E40E94A60A6B017C012E
:100E1A00ACEEB4EFA50194010E94C40ADC01CB0137
:100E2A008C0D9D1DAE1DBF1DB7FF03C00197A10903
:100E3A00B04888839983AA83BB839F77DF91CF9138
:100E4A00FF90EF90DF90CF90BF90AF909F908F90E0
:100E5A0008950E94E50608958DE891E00E94E5064E
:100E6A000895A0E0B0E0EDE8F1E080839183A283E9
:040E7A00B3830895A1
:100E7E00CF93DF938AE50E944C092FE382E49FE033
:100E8E00215080409040E1F700C000000E94D10741
:100E9E009093040180930301449714F0C0E001C0C5
:100EAE00C1E086EA0E944C092FE382E49FE02150C4
:100EBE0080409040E1F700C000000E94D10790935F
:100ECE00040180930301449714F0D0E001C0D1E0F7
:100EDE0080E00E944C092FE382E49FE02150804085
:100EEE009040E1F700C00000CC2311F0D11107C0F3
:100EFE00C11108C0DD2349F081E090E008C083E015
:100F0E0090E005C082E090E002C080E090E0DF91CA
:040F1E00CF910895D2
:100F220041E065E082E00E94290641E065E081E05F
:100F32000E94290641E060E083E00E94290641E028
:100F420061E083E00E94290641E062E083E00E94C2
:100F5200290641E063E083E00E94290641E067E060
:100F620083E00E94290680E00E944C092FE38DE075
:100F720093E0215080409040E1F700C000000E94C1
:100F8200530A40E065E081E00E9487060E946D00FE
:100F920041E065E081E00E9487060E940503FFCFE1
:100FA2001092800080E286BB41E067E083E00E940D
:100FB20087068FEC97E00197F1F700C0000040E050
:100FC20067E083E00E94870682EC80938100B59BF4
:100FD200FECF809186009091870020E226BB22E816
:100FE20020938100B59BFECF20918600309187002F
:100FF20040E246BB1092850010928400109281005C
:10100200281B390BA8E2B7E80E94890A20E039E0E0
:0C1012004DE350E00E942A09C901089536
:10101E00E89409C097FB3EF4909580957095619584
:10102E007F4F8F4F9F4F9923A9F0F92F96E9BB273A
:10103E009395F695879577956795B795F111F8CFB6
:10104E00FAF4BB0F11F460FF1BC06F5F7F4F8F4F21
:10105E009F4F16C0882311F096E911C0772321F017
:10106E009EE8872F762F05C0662371F096E8862FAF
:10107E0070E060E02AF09A95660F771F881FDAF706
:0A108E00880F9695879597F908954D
:10109800EF92FF920F931F93CF93DF9300E010E03E
:1010A800C0E0D0E021C0F801EE0FFF1FEE0FFF1FD8
:1010B800EE0DFF1DEE0FFF1FEE0FFF1FE75EFE4F49
:1010C8004081518162817381CE010E94B10A2496C8
:1010D8008FEFE81AF80A02C0E12CF12C84E0E81638
:1010E800F1040CF30F5F1F4F04301105ACF3DF91CF
:0C10F800CF911F910F91FF90EF90089591
:10110400EF92FF920F931F93CF93DF9300E010E0D1
:10111400E12CF12C21C0B70180E80E94EC0AF8010F
:10112400EE0FFF1FEE0FFF1FEC0FFD1FEE0FFF1F53
:10113400EE0FFF1FE75EFE4F60837183828393830C
:1011440084E0E80EF11C219602C0C0E0D0E0C43077
:10115400D1050CF30F5F1F4F04301105B4F3DF9179
:0C116400CF911F910F91FF90EF90089524
:1011700041E061E081E00E942906E1E8F0E0808141
:101180008160808380818260808380818B7F808387
:10119000A0E8B0E08C9182608C938081886080832D
:1011A0008081806180838C918F7B8C938C9180680F
:1011B0008C9387E893E19093870080938600109248
:0811C0008500109284000895DF
:1011C800990F0008550FAA0BE0E8FEEF1616170650
:1011D800E807F907C0F012161306E407F50798F0B8
:1011E800621B730B840B950B39F40A2661F0232BD1
:1011F800242B252B21F408950A2609F4A140A6954D
:081208008FEF811D811D089587
:1012100057FD9058440F551F59F05F3F71F04795A7
:10122000880F97FB991F61F09F3F79F0879508958C
:10123000121613061406551FF2CF4695F1DF08C0AB
:10124000161617061806991FF1CF869571056105C8
:041250000894089561
:10125400A1E21A2EAA1BBB1BFD010DC0AA1FBB1FB6
:10126400EE1FFF1FA217B307E407F50720F0A21B28
:10127400B30BE40BF50B661F771F881F991F1A9495
:1012840069F760957095809590959B01AC01BD01BF
:04129400CF010895E9
:10129800CF93C82F0E94B808CC2359F0CA3581F0E3
:1012A800C63AA1F485E990E090938900809388007C
:1012B8000DC08DE591E0909389008093880006C069
:1012C80087E592E09093890080938800CF910895F4
:1012D8000E94D1079093040180930301889724F416
:1012E80081E08093000102C01092000183EC99E034
:0E12F8000197F1F700C00000809100010895F9
:10130600052E97FB1EF400940E94B90A57FD07D0DC
:101316000E942A0907FC03D04EF40C94B90A509592
:0E1326004095309521953F4F4F4F5F4F0895F2
:1013340041E060E083E00E94870640E061E083E0F2
:101344000E94870641E062E083E00E94870640E055
:0A13540063E083E00E94870608951D
:10135E0040E060E083E00E94870641E061E083E0C8
:10136E000E94870640E062E083E00E94870641E02B
:0A137E0063E083E00E9487060895F3
:1013880041E060E083E00E94870640E061E083E09E
:101398000E94870640E062E083E00E94870641E001
:0A13A80063E083E00E9487060895C9
:1013B20040E060E083E00E94870641E061E083E074
:1013C2000E94870641E062E083E00E94870640E0D7
:0A13D20063E083E00E94870608959F
:1013DC0040E060E083E00E94870640E061E083E04B
:1013EC000E94870640E062E083E00E94870640E0AE
:0A13FC0063E083E00E948706089575
:101406001F920F920FB60F9211248F939F9387E727
:101416009CEE909385008093840078949F918F91A1
:0A1426000F900FBE0F901F90189555
:1014300097FB072E16F4009407D077FD09D00E9481
:101440002C0A07FC05D03EF4909581959F4F089596
:08145000709561957F4F08952E
:10145800AA1BBB1B51E107C0AA1FBB1FA617B707D2
:1014680010F0A61BB70B881F991F5A95A9F78095EE
:081478009095BC01CD0108951F
:101480000E94310764E670E00E94180ABC01990FBF
:10149000880B990B0E94110820E030E048EC52E4E0
:0614A0000E94080B0895F4
:1014A60041E065E083E00E94290641E066E083E0D2
:1014B6000E94290684B5836484BD85B5896085BD8F
:0614C60080E587BD0895DA
:1014CC00BA01A901DC01CB01FC01F999FECF06C0E0
:1014DC00F2BDE1BDF89A319600B40D9241505040E6
:0414EC00B8F70895B0
:1014F000092E0394000C11F4882352F0BB0F40F422
:10150000BF2B11F460FF04C06F5F7F4F8F4F9F4F61
:0215100008953C
:10151200A29FB001B39FC001A39F700D811D112432
:0E152200911DB29F700D811D1124911D089521
:10153000262FF999FECF1FBA92BD81BD20BD0FB6EF
:0C154000F894FA9AF99A0FBE01960895EB
:10154C000E94890AA59F900DB49F900DA49F800DB9
:06155C00911D1124089509
:10156200242F0E94990A252F0E94990A0C94030B9A
:1015720090958095709561957F4F8F4F9F4F0895FD
:10158200B7FF0C94A60A0E94A60A821B930B089529
:0E15920028E431EE4AE75FE30E940C0B089557
:0E15A0005058BB27AA270E94C2050C94780A57
:0E15AE0000240A94161617061806090608955A
:0E15BC0000240A94121613061406050608955C
:0E15CA00E894BB2766277727CB0197F9089591
:0E15D800CB01A6E1B0E044E050E00C946A0ABA
:0C15E60097F99F6780E870E060E00895CE
:0A15F2000E94E40808F481E0089567
:0A15FC000E94E40808F48FEF089540
:0A1606000E94980A272F0C94990AFD
:081610000E94E9040C94780A21
:081618000E9458050C94780AA9
:061620009FEF80EC08952D
:041626000C94000020
:10162A00F6FFFEFF0A000A00F6FFFEFF0A00F6FFB9
:10163A00F6FFFEFFF6FF0A00F6FF0A00F6FFF6FFC6
:08164A0001000200030004008E
:041652006666663F23
:041656000000003F51
:04165A00CDCCCC3DEA
:04165E000100000087
:02166200640022
:00000001FF
